S00B0000544D552E7372656323
S11300000C9431000C944E000C944E000C944E0051
S11300100C944E000C9428030C944E000C944E0047
S11300200C944E000C94FF020C944E000C94D602D7
S11300300C944E000C944E000C944E000C944E0004
S11300400C944E000C944E000C944E000C944E00F4
S11300500C944E000E0215021C0223022A023102E5
S1130060380211241FBECFE5D8E0DEBFCDBF10E0BB
S1130070A0E6B0E0E0EAF9E002C005900D92A436F3
S1130080B107D9F720E0A4E6B0E001C01D92AD3B72
S1130090B207E1F70E9479030C94CE040C9400009B
S11300A081E08093650080E0089585B7806885BF0E
S11300B0889580E008958093640085B78F7085BF2C
S11300C095B780916400892B85BF80E008950097DF
S11300D009F457C0FC012281222319F02F3F59F162
S11300E052C0FC012081213071F028F0223099F0B7
S11300F02330C9F04AC02AB3FC0181818095822350
S11301008ABB80E0089527B3FC0181818095822316
S113011087BB80E0089524B3FC018181809582230C
S113012084BB80E0089521B3FC0181818095822302
S113013081BB80E00895FC012081213069F028F022
S1130140223089F02330B1F022C02AB3FC0181812E
S1130150822B8ABB80E0089527B3FC018181822B26
S113016087BB80E0089524B3FC018181822B84BB8A
S113017080E0089521B3FC018181822B81BB80E062
S1130180089581E0089581E0089581E0089581E073
S11301900895442319F04F3F09F13CC0813061F0C8
S11301A028F0823079F0833099F036C08BB36095B3
S11301B068236BBB80E0089588B36095682368BBAF
S11301C080E0089585B36095682365BB80E0089559
S11301D082B36095682362BB80E00895813059F052
S11301E028F0823069F0833081F018C08BB3682B1B
S11301F06BBB80E0089588B3682B68BB80E00895EA
S113020085B3682B65BB80E0089582B3682B62BB1D
S113021080E0089581E0089581E0089581E00895E3
S1130220813059F028F0823069F0833081F014C0B5
S11302308BB368276BBB80E0089588B3682768BBDD
S113024080E0089585B3682765BB80E0089582B394
S1130250682762BB80E0089581E00895CF93DF931F
S1130260EC018881813009F460C020F0823009F407
S1130270B8C00FC18C819D81009721F090936700D5
S11302808093660089818130B1F118F08230D1F118
S113029000C113BE8B818430C9F028F4813041F051
S11302A0823069F0F6C08630C1F08730E9F0F1C0E1
S11302B0A881B0E0A159BF4F81E08C9329C0A881E7
S11302C0B0E0A159BF4F82E08C9322C0A881B0E076
S11302D0A159BF4F83E08C931BC0A881B0E0A15902
S11302E0BF4F84E08C9314C0A881B0E0A159BF4FE4
S11302F085E08C930DC0A881B0E0A159BF4F87E081
S11303008C9306C0A881B0E0A159BF4F86E08C93BE
S11303108A81882339F0813009F0BBC089B78160B4
S113032089BFB7C089B789BFB4C08C819D8100974C
S113033021F0909369008093680089818130B9F13C
S113034018F08230D9F1A5C01FBC1EBC8B8184304B
S1130350C9F028F4813041F0823069F09AC08630C7
S1130360C1F08730E9F095C0A881B0E0A159BF4F32
S113037081E08C9329C0A881B0E0A159BF4F82E0ED
S11303808C9322C0A881B0E0A159BF4F83E08C9325
S11303901BC0A881B0E0A159BF4F84E08C9314C066
S11303A0A881B0E0A159BF4F85E08C930DC0A8810E
S11303B0B0E0A159BF4F87E08C9306C0A881B0E09C
S11303C0A159BF4F86E08C938A81882339F081300C
S11303D009F05FC089B7846089BF5BC089B789BFF2
S11303E058C08C819D81009721F090936B0080937D
S11303F06A008981882321F0833008F04AC03EC016
S113040015BC4B8150E0415051094730510508F06B
S113041040C0465D5F4FFA010C94C804A881B0E067
S1130420A159BF4F81E08C9329C0A881B0E0A159A4
S1130430BF4F82E08C9322C0A881B0E0A159BF4F86
S113044083E08C931BC0A881B0E0A159BF4F84E026
S11304508C9314C0A881B0E0A159BF4F85E08C9360
S11304600DC0A881B0E0A159BF4F86E08C9306C0AF
S1130470A881B0E0A159BF4F87E08C938A8188237B
S113048031F0813031F489B7806489BF02C089B703
S113049089BF81E0DF91CF910895813001F118F097
S11304A08230D1F14EC06F3F710511F008F04BC09E
S11304B090916F00992309F448C09650923038F413
S11304C012BE23B790916F00922B93BF32C06095F8
S11304D062BF23B790916F00922B93BF2AC0909173
S11304E070009923A1F19650923050F41DBC1CBCAD
S11304F02EB53FB590917000292B3FBD2EBD19C07C
S1130500609570957DBD6CBD2EB53FB59091700022
S1130510292B3FBD2EBD0DC06F3F710509F0C8F4F6
S1130520909171009923B9F0609564BD25B5922B23
S113053095BDE82FF0E0E459FF4F81E0808380E02F
S1130540089581E0089581E0089581E0089581E0AF
S1130550089581E0089581E00895833008F5282FF7
S113056030E0F901E459FF4F90819130D9F48130A2
S113057041F018F0823059F017C083B7887F83BFE9
S113058009C08EB59FB5887F9FBD8EBD03C085B55C
S1130590887F85BDF901E459FF4F108280E00895FA
S11305A081E0089581E0089581E008951F920F92FB
S11305B00FB60F9211242F933F934F935F936F9332
S11305C07F938F939F93AF93BF93EF93FF93E091A8
S11305D06600F0916700309709F00995FF91EF915B
S11305E0BF91AF919F918F917F916F915F914F9147
S11305F03F912F910F900FBE0F901F9018951F924F
S11306000F920FB60F9211242F933F934F935F9342
S11306106F937F938F939F93AF93BF93EF93FF93C6
S1130620E0916800F0916900309709F00995FF9115
S1130630EF91BF91AF919F918F917F916F915F9156
S11306404F913F912F910F900FBE0F901F901895CF
S11306501F920F920FB60F9211242F933F934F9333
S11306605F936F937F938F939F93AF93BF93EF9316
S1130670FF93E0916A00F0916B00309709F00995BF
S1130680FF91EF91BF91AF919F918F917F916F9166
S11306905F914F913F912F910F900FBE0F901F903C
S11306A0189561E081E00E941001089562E081E004
S11306B00E941001089564E081E00E9410010895F1
S11306C068E081E00E941001089560E181E00E94E9
S11306D01001089560E281E00E941001089560E431
S11306E081E00E941001089560E881E00E941001F9
S11306F00895CF93DF9300D01F92CDB7DEB77894DF
S113070081E089838FEF8A838B83CE0101960E94D7
S1130710670040E06FEF81E00E94C9000E94DE03A1
S113072041E061E070E081E593E00E94290441E04A
S113073062E070E086E593E00E94290441E063E012
S113074070E08BE593E00E94290441E064E070E0EE
S113075080E693E00E94290441E065E070E085E6CC
S113076093E00E94290441E066E070E08AE693E0A9
S11307700E94290441E067E070E08FE693E00E9464
S1130780290441E068E070E084E793E00E942904D2
S11307900E94500080E00E945B000E9457040E9467
S11307A05500FBCF6091BA007091BB008091BC00F2
S11307B00E944D0281E08093B9000895CF93DF93A6
S11307C000D000D000D0CDB7DEB780916100813079
S11307D0B1F580916200813041F018F0823051F01F
S11307E00DC019821092BC0009C081E089838093F6
S11307F0BC0004C082E089838093BC001A8281E03B
S11308008B8387E08C8382ED93E09E838D83CE017E
S113081001960E942E014091630020E83EE3429F2E
S1130820C001439F900D1124892F8695869580934E
S1130830BA001092BB001092610088E701C08BE7F8
S113084026960FB6F894DEBF0FBECDBFDF91CF91D1
S1130850089520916100211124C0009721F1209175
S1130860720037E0239FF0011124ED58FF4F1182ED
S11308701082738362839583848346832F5F2093DE
S1130880720080916000813081F46091BA007091AF
S1130890BB008091BC000E944D021092600088E76A
S11308A008958AE7089581E0089588E70895EF920E
S11308B0FF920F931F93CF93DF9380916100811177
S11308C05DC08091B900813009F05AC080917200F6
S11308D0882309F448C0F12C0F2EF7E0EF2EF02DF9
S11308E0CF2DD0E087E0F89EF0011124ED58FF4FA2
S11308F08081918101969183808322813381821743
S1130900930749F58E01000F111F000F111F000FEF
S1130910111F0C1B1D0B0D581F4FD8011496ED9180
S1130920FC9115970995F801118210828681811135
S113093012C080917200D80197E0899FF0011124C0
S1130940ED58FF4F9E2D01900D929A95E1F781503D
S113095080937200FA94F39480917200F81608F46C
S1130960BFCF811107C08091BC000E94AD0281E01D
S1130970809360001092B90088E703C08AE701C041
S113098088E7DF91CF911F910F91FF90EF90089529
S1130990EE0FFF1F0590F491E02D0994F894FFCF1A
S10709A0010100014C
S9030000FC
